:0300000002014BAF
:0C014B00787FE4F6D8FD75813E02019239
:10023B002E2E2E2E0D0A0041542B43574A41503D72
:10024B002243616C6C204D65222C223131393436BE
:10025B00303738220D0A0041542B43495053544137
:10026B0052543D22544350222C223139322E3136F6
:10027B00382E36382E313736222C383038300D0A9E
:01028B000072
:1002D1000F2141542B4349504D4F44453D310D0AA7
:1002E100000D1441542B43495053454E440D0A000F
:1002F100090A41542B5253540D0A000130000113D5
:050301000002080000ED
:10000300758E017598505389F0438920758DFD7560
:090013008BFDD28ED2AFD2AC22DB
:0D031A00007F087E017DF3DDFEDEFCDFFAD2
:0103270022B3
:080328008F993099FDC2992262
:1003070012028CFF600C120328740129F9E43AFAEF
:0303170080EE2253
:1001D700E4F53DF53ED2B6D2B712000312031A7BFF
:1001E700FF7A027942120307E53060FCE4F5307BC1
:1001F700FF7A027962120307E53060FCE4F530FB11
:100207007A007921120307E53060FCE4F530FB7AC8
:10021700007914120307E53060FCE5136002C2B7EA
:10022700E5306002C2B612031A7BFF7A02793B12ED
:04023700030780F247
:03002300020026B2
:10002600C0E0C0F0C083C082C0D075D000C000C0A0
:0D00360001C002C003C004C005C006C00721
:10004300209803020130C298AF99EF6457600DEF17
:10005300644F6008EF644C6003BF46067508007583
:1000630009000509E50970020508142431F8A607FB
:10007300E531B45717E536B447127513017E007F97
:100083000C7D007B007A0079311202A5E531B44F73
:1000930017E532B44B127530017E007F0C7D007B77
:1000A300007A0079311202A5E5316446703DE532EC
:1000B30064417037F508F509C2B712031AD2B712B3
:1000C300031A0509E50970020508C39405E50864E8
:1000D30080948040E37B007A00790A1203077E0054
:1000E3007F0C7D007A0079311202A5E531B44C16FC
:1000F300E533B43111C2B77E007F0C7D007B007AFB
:100103000079311202A5E531B44C16E533B4301150
:10011300D2B77E007F0C7D007B007A00793112021A
:0D012300A5E509640C45087004F508F50910
:10013000D007D006D005D004D003D002D001D00023
:0B014000D0D0D082D083D0F0D0E032CD
:100157000201D7E493A3F8E493A34003F68001F2E6
:1001670008DFF48029E493A3F85407240CC8C333A9
:10017700C4540F4420C8834004F456800146F6DF78
:10018700E4800B01020408102040809002D1E47E35
:10019700019360BCA3FF543F30E509541FFEE4936D
:1001A700A360010ECF54C025E060A840B8E493A334
:1001B700FAE493A3F8E493A3C8C582C8CAC583CA5F
:1001C700F0A3C8C582C8CAC583CADFE9DEE780BE17
:0103060000F6
:10028C00BB010689828A83E0225002E722BBFE0270
:09029C00E32289828A83E49322A3
:1002A500EF4E6012EF60010EEDBB010B89828A8370
:1002B500F0A3DFFCDEFA2289F05007F709DFFCA97D
:0C02C500F022BBFEFCF309DFFCA9F022D4
:00000001FF
